:020000040000FA
:020000000328D3
:040002000034003492
:0A00060007309F000313831600303B
:1000100086008312000021308600000000002020AE
:1000200022308600000034200C30860000000000E2
:1000300000000000202014308600000034200B282F
:100040000000E830B300B30B23285230B0000000AA
:10005000A330B10000007B30B200B20B2D28B10BF1
:100060002A28B00B272808000000A430B300B30BE7
:1000700037286930B00000004730B10000002B3055
:10008000B200B20B4128B10B3E28B00B3B28080050
:02400E00193F58
:00000001FF
